{
  "_format": "hh-sol-artifact-1",
  "contractName": "CrowdSale",
  "sourceName": "contracts/CrowdSales.sol",
  "abi": [
    {
      "inputs": [
        {
          "internalType": "address",
          "name": "_token",
          "type": "address"
        },
        {
          "internalType": "address",
          "name": "_usdtToken",
          "type": "address"
        },
        {
          "internalType": "address",
          "name": "_bnbPriceFeed",
          "type": "address"
        },
        {
          "internalType": "uint256",
          "name": "_startTime",
          "type": "uint256"
        },
        {
          "internalType": "uint256",
          "name": "_endTime",
          "type": "uint256"
        }
      ],
      "stateMutability": "nonpayable",
      "type": "constructor"
    },
    {
      "inputs": [],
      "name": "EnforcedPause",
      "type": "error"
    },
    {
      "inputs": [],
      "name": "ExpectedPause",
      "type": "error"
    },
    {
      "inputs": [
        {
          "internalType": "address",
          "name": "owner",
          "type": "address"
        }
      ],
      "name": "OwnableInvalidOwner",
      "type": "error"
    },
    {
      "inputs": [
        {
          "internalType": "address",
          "name": "account",
          "type": "address"
        }
      ],
      "name": "OwnableUnauthorizedAccount",
      "type": "error"
    },
    {
      "inputs": [],
      "name": "ReentrancyGuardReentrantCall",
      "type": "error"
    },
    {
      "inputs": [
        {
          "internalType": "address",
          "name": "token",
          "type": "address"
        }
      ],
      "name": "SafeERC20FailedOperation",
      "type": "error"
    },
    {
      "anonymous": false,
      "inputs": [],
      "name": "CrowdsaleFinalized",
      "type": "event"
    },
    {
      "anonymous": false,
      "inputs": [
        {
          "indexed": false,
          "internalType": "uint256",
          "name": "newEndTime",
          "type": "uint256"
        }
      ],
      "name": "EndTimeUpdated",
      "type": "event"
    },
    {
      "anonymous": false,
      "inputs": [
        {
          "indexed": false,
          "internalType": "uint256",
          "name": "amount",
          "type": "uint256"
        }
      ],
      "name": "FundsWithdrawn",
      "type": "event"
    },
    {
      "anonymous": false,
      "inputs": [
        {
          "indexed": true,
          "internalType": "address",
          "name": "previousOwner",
          "type": "address"
        },
        {
          "indexed": true,
          "internalType": "address",
          "name": "newOwner",
          "type": "address"
        }
      ],
      "name": "OwnershipTransferred",
      "type": "event"
    },
    {
      "anonymous": false,
      "inputs": [
        {
          "indexed": false,
          "internalType": "address",
          "name": "account",
          "type": "address"
        }
      ],
      "name": "Paused",
      "type": "event"
    },
    {
      "anonymous": false,
      "inputs": [
        {
          "indexed": false,
          "internalType": "uint256",
          "name": "stage",
          "type": "uint256"
        },
        {
          "indexed": false,
          "internalType": "uint256",
          "name": "rate",
          "type": "uint256"
        },
        {
          "indexed": false,
          "internalType": "uint256",
          "name": "cap",
          "type": "uint256"
        }
      ],
      "name": "SaleStageUpdated",
      "type": "event"
    },
    {
      "anonymous": false,
      "inputs": [
        {
          "indexed": true,
          "internalType": "address",
          "name": "buyer",
          "type": "address"
        },
        {
          "indexed": false,
          "internalType": "uint256",
          "name": "amountPaid",
          "type": "uint256"
        },
        {
          "indexed": false,
          "internalType": "uint256",
          "name": "tokensReceived",
          "type": "uint256"
        }
      ],
      "name": "TokensPurchased",
      "type": "event"
    },
    {
      "anonymous": false,
      "inputs": [
        {
          "indexed": false,
          "internalType": "address",
          "name": "account",
          "type": "address"
        }
      ],
      "name": "Unpaused",
      "type": "event"
    },
    {
      "stateMutability": "payable",
      "type": "fallback"
    },
    {
      "inputs": [],
      "name": "_getLatestBNBPrice",
      "outputs": [
        {
          "internalType": "uint256",
          "name": "",
          "type": "uint256"
        }
      ],
      "stateMutability": "view",
      "type": "function"
    },
    {
      "inputs": [
        {
          "internalType": "uint256",
          "name": "_rate",
          "type": "uint256"
        },
        {
          "internalType": "uint256",
          "name": "_cap",
          "type": "uint256"
        }
      ],
      "name": "addSaleStage",
      "outputs": [],
      "stateMutability": "nonpayable",
      "type": "function"
    },
    {
      "inputs": [],
      "name": "amountRaised",
      "outputs": [
        {
          "internalType": "uint256",
          "name": "",
          "type": "uint256"
        }
      ],
      "stateMutability": "view",
      "type": "function"
    },
    {
      "inputs": [],
      "name": "buyTokenWithNativeCoin",
      "outputs": [],
      "stateMutability": "payable",
      "type": "function"
    },
    {
      "inputs": [
        {
          "internalType": "uint256",
          "name": "_paymentAmount",
          "type": "uint256"
        }
      ],
      "name": "buyTokenWithUsdt",
      "outputs": [],
      "stateMutability": "nonpayable",
      "type": "function"
    },
    {
      "inputs": [],
      "name": "currentStage",
      "outputs": [
        {
          "internalType": "uint256",
          "name": "",
          "type": "uint256"
        }
      ],
      "stateMutability": "view",
      "type": "function"
    },
    {
      "inputs": [],
      "name": "endTime",
      "outputs": [
        {
          "internalType": "uint256",
          "name": "",
          "type": "uint256"
        }
      ],
      "stateMutability": "view",
      "type": "function"
    },
    {
      "inputs": [],
      "name": "finalize",
      "outputs": [],
      "stateMutability": "nonpayable",
      "type": "function"
    },
    {
      "inputs": [],
      "name": "isFinalized",
      "outputs": [
        {
          "internalType": "bool",
          "name": "",
          "type": "bool"
        }
      ],
      "stateMutability": "view",
      "type": "function"
    },
    {
      "inputs": [],
      "name": "owner",
      "outputs": [
        {
          "internalType": "address",
          "name": "",
          "type": "address"
        }
      ],
      "stateMutability": "view",
      "type": "function"
    },
    {
      "inputs": [],
      "name": "pause",
      "outputs": [],
      "stateMutability": "nonpayable",
      "type": "function"
    },
    {
      "inputs": [],
      "name": "paused",
      "outputs": [
        {
          "internalType": "bool",
          "name": "",
          "type": "bool"
        }
      ],
      "stateMutability": "view",
      "type": "function"
    },
    {
      "inputs": [],
      "name": "renounceOwnership",
      "outputs": [],
      "stateMutability": "nonpayable",
      "type": "function"
    },
    {
      "inputs": [
        {
          "internalType": "uint256",
          "name": "",
          "type": "uint256"
        }
      ],
      "name": "saleStages",
      "outputs": [
        {
          "internalType": "uint256",
          "name": "rate",
          "type": "uint256"
        },
        {
          "internalType": "uint256",
          "name": "cap",
          "type": "uint256"
        },
        {
          "internalType": "uint256",
          "name": "sold",
          "type": "uint256"
        }
      ],
      "stateMutability": "view",
      "type": "function"
    },
    {
      "inputs": [],
      "name": "startTime",
      "outputs": [
        {
          "internalType": "uint256",
          "name": "",
          "type": "uint256"
        }
      ],
      "stateMutability": "view",
      "type": "function"
    },
    {
      "inputs": [],
      "name": "token",
      "outputs": [
        {
          "internalType": "contract IERC20",
          "name": "",
          "type": "address"
        }
      ],
      "stateMutability": "view",
      "type": "function"
    },
    {
      "inputs": [],
      "name": "tokensSold",
      "outputs": [
        {
          "internalType": "uint256",
          "name": "",
          "type": "uint256"
        }
      ],
      "stateMutability": "view",
      "type": "function"
    },
    {
      "inputs": [],
      "name": "totalCap",
      "outputs": [
        {
          "internalType": "uint256",
          "name": "",
          "type": "uint256"
        }
      ],
      "stateMutability": "view",
      "type": "function"
    },
    {
      "inputs": [
        {
          "internalType": "address",
          "name": "newOwner",
          "type": "address"
        }
      ],
      "name": "transferOwnership",
      "outputs": [],
      "stateMutability": "nonpayable",
      "type": "function"
    },
    {
      "inputs": [],
      "name": "unpause",
      "outputs": [],
      "stateMutability": "nonpayable",
      "type": "function"
    },
    {
      "inputs": [
        {
          "internalType": "uint256",
          "name": "_newEndTime",
          "type": "uint256"
        }
      ],
      "name": "updateEndTime",
      "outputs": [],
      "stateMutability": "nonpayable",
      "type": "function"
    },
    {
      "inputs": [],
      "name": "usdtToken",
      "outputs": [
        {
          "internalType": "contract IERC20",
          "name": "",
          "type": "address"
        }
      ],
      "stateMutability": "view",
      "type": "function"
    },
    {
      "inputs": [],
      "name": "wallet",
      "outputs": [
        {
          "internalType": "address",
          "name": "",
          "type": "address"
        }
      ],
      "stateMutability": "view",
      "type": "function"
    },
    {
      "inputs": [
        {
          "internalType": "address",
          "name": "_token",
          "type": "address"
        },
        {
          "internalType": "uint256",
          "name": "amount",
          "type": "uint256"
        }
      ],
      "name": "withdrawERC20",
      "outputs": [],
      "stateMutability": "nonpayable",
      "type": "function"
    },
    {
      "stateMutability": "payable",
      "type": "receive"
    }
  ],
  "bytecode": "0x60806040526000600b60006101000a81548160ff0219169083151502179055506001600d5534801561003057600080fd5b5060405161275138038061275183398181016040528101906100529190610534565b33600073ffffffffffffffffffffffffffffffffffffffff168173ffffffffffffffffffffffffffffffffffffffff16036100c55760006040517f1e4fbdf70000000000000000000000000000000000000000000000000000000081526004016100bc91906105be565b60405180910390fd5b6100d4816103ae60201b60201c565b5060008060146101000a81548160ff02191690831515021790555060018081905550600073ffffffffffffffffffffffffffffffffffffffff168573ffffffffffffffffffffffffffffffffffffffff1603610165576040517f08c379a000000000000000000000000000000000000000000000000000000000815260040161015c90610636565b60405180910390fd5b600073ffffffffffffffffffffffffffffffffffffffff168473ffffffffffffffffffffffffffffffffffffffff16036101d4576040517f08c379a00000000000000000000000000000000000000000000000000000000081526004016101cb906106a2565b60405180910390fd5b600073ffffffffffffffffffffffffffffffffffffffff168373ffffffffffffffffffffffffffffffffffffffff1603610243576040517f08c379a000000000000000000000000000000000000000000000000000000000815260040161023a9061070e565b60405180910390fd5b808210610285576040517f08c379a000000000000000000000000000000000000000000000000000000000815260040161027c906107a0565b60405180910390fd5b84600260006101000a81548173ffffffffffffffffffffffffffffffffffffffff021916908373ffffffffffffffffffffffffffffffffffffffff1602179055506102d461047260201b60201c565b600360006101000a81548173ffffffffffffffffffffffffffffffffffffffff021916908373ffffffffffffffffffffffffffffffffffffffff16021790555083600460006101000a81548173ffffffffffffffffffffffffffffffffffffffff021916908373ffffffffffffffffffffffffffffffffffffffff16021790555082600560006101000a81548173ffffffffffffffffffffffffffffffffffffffff021916908373ffffffffffffffffffffffffffffffffffffffff160217905550816008819055508060098190555050505050506107c0565b60008060009054906101000a900473ffffffffffffffffffffffffffffffffffffffff169050816000806101000a81548173ffffffffffffffffffffffffffffffffffffffff021916908373ffffffffffffffffffffffffffffffffffffffff1602179055508173ffffffffffffffffffffffffffffffffffffffff168173ffffffffffffffffffffffffffffffffffffffff167f8be0079c531659141344cd1fd0a4f28419497f9722a3daafe3b4186f6b6457e060405160405180910390a35050565b60008060009054906101000a900473ffffffffffffffffffffffffffffffffffffffff16905090565b600080fd5b600073ffffffffffffffffffffffffffffffffffffffff82169050919050565b60006104cb826104a0565b9050919050565b6104db816104c0565b81146104e657600080fd5b50565b6000815190506104f8816104d2565b92915050565b6000819050919050565b610511816104fe565b811461051c57600080fd5b50565b60008151905061052e81610508565b92915050565b600080600080600060a086880312156105505761054f61049b565b5b600061055e888289016104e9565b955050602061056f888289016104e9565b9450506040610580888289016104e9565b93505060606105918882890161051f565b92505060806105a28882890161051f565b9150509295509295909350565b6105b8816104c0565b82525050565b60006020820190506105d360008301846105af565b92915050565b600082825260208201905092915050565b7f496e76616c696420746f6b656e20616464726573730000000000000000000000600082015250565b60006106206015836105d9565b915061062b826105ea565b602082019050919050565b6000602082019050818103600083015261064f81610613565b9050919050565b7f496e76616c6964207061796d656e7420746f6b656e2061646472657373000000600082015250565b600061068c601d836105d9565b915061069782610656565b602082019050919050565b600060208201905081810360008301526106bb8161067f565b9050919050565b7f496e76616c69642077616c6c6574206164647265737300000000000000000000600082015250565b60006106f86016836105d9565b9150610703826106c2565b602082019050919050565b60006020820190508181036000830152610727816106eb565b9050919050565b7f53746172742074696d65206d757374206265206265666f726520656e6420746960008201527f6d65000000000000000000000000000000000000000000000000000000000000602082015250565b600061078a6022836105d9565b91506107958261072e565b604082019050919050565b600060208201905081810360008301526107b98161077d565b9050919050565b611f82806107cf6000396000f3fe60806040526004361061014f5760003560e01c8063715018a6116100b65780638da5cb5b1161006f5780638da5cb5b14610493578063a1db9782146104be578063a98ad46c146104e7578063ab64b49b14610512578063f2fde38b1461053b578063fc0c546a14610564576101a1565b8063715018a6146103bb57806378e97925146103d25780637b3e5e7b146103fd57806382dd1b1a146104285780638456cb59146104515780638d4e408314610468576101a1565b80634bb278f3116101085780634bb278f3146102cf578063518ab2a8146102e6578063521eb273146103115780635bf5d54c1461033c5780635c975abb146103675780636ab3846b14610392576101a1565b806305547d14146101ee578063164500921461022d57806323a30ae1146102585780633197cbb6146102625780633f4ba83a1461028d578063405f7b79146102a4576101a1565b366101a15760003411610197576040517f08c379a000000000000000000000000000000000000000000000000000000000815260040161018e90611693565b60405180910390fd5b61019f61058f565b005b600034116101e4576040517f08c379a00000000000000000000000000000000000000000000000000000000081526004016101db90611693565b60405180910390fd5b6101ec61058f565b005b3480156101fa57600080fd5b50610215600480360381019061021091906116ee565b6107e1565b6040516102249392919061172a565b60405180910390f35b34801561023957600080fd5b5061024261081b565b60405161024f9190611761565b60405180910390f35b61026061058f565b005b34801561026e57600080fd5b50610277610821565b6040516102849190611761565b60405180910390f35b34801561029957600080fd5b506102a2610827565b005b3480156102b057600080fd5b506102b9610839565b6040516102c69190611761565b60405180910390f35b3480156102db57600080fd5b506102e4610930565b005b3480156102f257600080fd5b506102fb6109d1565b6040516103089190611761565b60405180910390f35b34801561031d57600080fd5b506103266109d7565b60405161033391906117bd565b60405180910390f35b34801561034857600080fd5b506103516109fd565b60405161035e9190611761565b60405180910390f35b34801561037357600080fd5b5061037c610a03565b60405161038991906117f3565b60405180910390f35b34801561039e57600080fd5b506103b960048036038101906103b491906116ee565b610a19565b005b3480156103c757600080fd5b506103d0610b38565b005b3480156103de57600080fd5b506103e7610b4c565b6040516103f49190611761565b60405180910390f35b34801561040957600080fd5b50610412610b52565b60405161041f9190611761565b60405180910390f35b34801561043457600080fd5b5061044f600480360381019061044a919061180e565b610b58565b005b34801561045d57600080fd5b50610466610c5e565b005b34801561047457600080fd5b5061047d610c70565b60405161048a91906117f3565b60405180910390f35b34801561049f57600080fd5b506104a8610c83565b6040516104b591906117bd565b60405180910390f35b3480156104ca57600080fd5b506104e560048036038101906104e0919061187a565b610cac565b005b3480156104f357600080fd5b506104fc610d75565b6040516105099190611919565b60405180910390f35b34801561051e57600080fd5b50610539600480360381019061053491906116ee565b610d9b565b005b34801561054757600080fd5b50610562600480360381019061055d9190611934565b610f71565b005b34801561057057600080fd5b50610579610ff7565b6040516105869190611919565b60405180910390f35b60085442101580156105a357506009544211155b6105e2576040517f08c379a00000000000000000000000000000000000000000000000000000000081526004016105d9906119ad565b60405180910390fd5b600b60009054906101000a900460ff1615610632576040517f08c379a000000000000000000000000000000000000000000000000000000000815260040161062990611a19565b60405180910390fd5b61063a61101d565b61064261105e565b60003411610685576040517f08c379a000000000000000000000000000000000000000000000000000000000815260040161067c90611693565b60405180910390fd5b600061068f610839565b90506000670de0b6b3a764000082346106a89190611a68565b6106b29190611ad9565b905060006106e782600c600d54815481106106d0576106cf611b0a565b5b9060005260206000209060030201600001546110a4565b9050600360009054906101000a900473ffffffffffffffffffffffffffffffffffffffff1673ffffffffffffffffffffffffffffffffffffffff166108fc349081150290604051600060405180830381858888f19350505050158015610751573d6000803e3d6000fd5b5081600660008282546107649190611b39565b92505081905550806007600082825461077d9190611b39565b9250508190555080600c600d548154811061079b5761079a611b0a565b5b906000526020600020906003020160020160008282546107bb9190611b39565b925050819055506107cc33826110ba565b6107d461110b565b5050506107df6111bd565b565b600c81815481106107f157600080fd5b90600052602060002090600302016000915090508060000154908060010154908060020154905083565b600a5481565b60095481565b61082f6111c6565b61083761124d565b565b600080600560009054906101000a900473ffffffffffffffffffffffffffffffffffffffff1673ffffffffffffffffffffffffffffffffffffffff1663feaf968c6040518163ffffffff1660e01b815260040160a060405180830381865afa1580156108a9573d6000803e3d6000fd5b505050506040513d601f19601f820116820180604052508101906108cd9190611bfa565b50505091505060008113610916576040517f08c379a000000000000000000000000000000000000000000000000000000000815260040161090d90611cc1565b60405180910390fd5b670de0b6b3a76400008161092a9190611a68565b91505090565b6109386111c6565b600b60009054906101000a900460ff1615610988576040517f08c379a000000000000000000000000000000000000000000000000000000000815260040161097f90611a19565b60405180910390fd5b6001600b60006101000a81548160ff0219169083151502179055507f9270cc390c096600a1c17c44345a1ba689fafd99d97487b10cfccf86cf73183660405160405180910390a1565b60075481565b600360009054906101000a900473ffffffffffffffffffffffffffffffffffffffff1681565b600d5481565b60008060149054906101000a900460ff16905090565b610a216111c6565b600b60009054906101000a900460ff1615610a71576040517f08c379a0000000000000000000000000000000000000000000000000000000008152600401610a6890611a19565b60405180910390fd5b428111610ab3576040517f08c379a0000000000000000000000000000000000000000000000000000000008152600401610aaa90611d2d565b60405180910390fd5b6008548111610af7576040517f08c379a0000000000000000000000000000000000000000000000000000000008152600401610aee90611dbf565b60405180910390fd5b806009819055507f37d37b8940cc1ec723111799f54132501e05042cd219649e575e84e5c36f3b5e81604051610b2d9190611761565b60405180910390a150565b610b406111c6565b610b4a60006112af565b565b60085481565b60065481565b610b606111c6565b600b60009054906101000a900460ff1615610bb0576040517f08c379a0000000000000000000000000000000000000000000000000000000008152600401610ba790611a19565b60405180910390fd5b60008211610bf3576040517f08c379a0000000000000000000000000000000000000000000000000000000008152600401610bea90611e2b565b60405180910390fd5b600c60405180606001604052808481526020018381526020016000815250908060018154018082558091505060019003906000526020600020906003020160009091909190915060008201518160000155602082015181600101556040820151816002015550505050565b610c666111c6565b610c6e611373565b565b600b60009054906101000a900460ff1681565b60008060009054906101000a900473ffffffffffffffffffffffffffffffffffffffff16905090565b610cb46111c6565b8173ffffffffffffffffffffffffffffffffffffffff1663a9059cbb610cd8610c83565b836040518363ffffffff1660e01b8152600401610cf6929190611e4b565b6020604051808303816000875af1158015610d15573d6000803e3d6000fd5b505050506040513d601f19601f82011682018060405250810190610d399190611ea0565b507f4a37b25aab49761ecf63117fe82b98d750917451133cf797507bc9fb5b96044a81604051610d699190611761565b60405180910390a15050565b600460009054906101000a900473ffffffffffffffffffffffffffffffffffffffff1681565b6008544210158015610daf57506009544211155b610dee576040517f08c379a0000000000000000000000000000000000000000000000000000000008152600401610de5906119ad565b60405180910390fd5b600b60009054906101000a900460ff1615610e3e576040517f08c379a0000000000000000000000000000000000000000000000000000000008152600401610e3590611a19565b60405180910390fd5b610e4661101d565b610e4e61105e565b60008111610e91576040517f08c379a0000000000000000000000000000000000000000000000000000000008152600401610e8890611693565b60405180910390fd5b6000610ec482600c600d5481548110610ead57610eac611b0a565b5b9060005260206000209060030201600001546110a4565b9050610ee333670de0b6b3a764000084610ede9190611a68565b6113d6565b8160066000828254610ef59190611b39565b925050819055508060076000828254610f0e9190611b39565b9250508190555080600c600d5481548110610f2c57610f2b611b0a565b5b90600052602060002090600302016002016000828254610f4c9190611b39565b92505081905550610f5d33826110ba565b610f6561110b565b50610f6e6111bd565b50565b610f796111c6565b600073ffffffffffffffffffffffffffffffffffffffff168173ffffffffffffffffffffffffffffffffffffffff1603610feb5760006040517f1e4fbdf7000000000000000000000000000000000000000000000000000000008152600401610fe291906117bd565b60405180910390fd5b610ff4816112af565b50565b600260009054906101000a900473ffffffffffffffffffffffffffffffffffffffff1681565b611025610a03565b1561105c576040517fd93c066500000000000000000000000000000000000000000000000000000000815260040160405180910390fd5b565b60026001540361109a576040517f3ee5aeb500000000000000000000000000000000000000000000000000000000815260040160405180910390fd5b6002600181905550565b600081836110b29190611a68565b905092915050565b6111078282600260009054906101000a900473ffffffffffffffffffffffffffffffffffffffff1673ffffffffffffffffffffffffffffffffffffffff1661144b9092919063ffffffff16565b5050565b600c600d548154811061112157611120611b0a565b5b906000526020600020906003020160010154600c600d548154811061114957611148611b0a565b5b9060005260206000209060030201600201541015801561119d57506000600c6001600d546111779190611b39565b8154811061118857611187611b0a565b5b90600052602060002090600302016000015414155b156111bb57600d60008154809291906111b590611ecd565b91905055505b565b60018081905550565b6111ce6114ca565b73ffffffffffffffffffffffffffffffffffffffff166111ec610c83565b73ffffffffffffffffffffffffffffffffffffffff161461124b5761120f6114ca565b6040517f118cdaa700000000000000000000000000000000000000000000000000000000815260040161124291906117bd565b60405180910390fd5b565b6112556114d2565b60008060146101000a81548160ff0219169083151502179055507f5db9ee0a495bf2e6ff9c91a7834c1ba4fdd244a5e8aa4e537bd38aeae4b073aa6112986114ca565b6040516112a591906117bd565b60405180910390a1565b60008060009054906101000a900473ffffffffffffffffffffffffffffffffffffffff169050816000806101000a81548173ffffffffffffffffffffffffffffffffffffffff021916908373ffffffffffffffffffffffffffffffffffffffff1602179055508173ffffffffffffffffffffffffffffffffffffffff168173ffffffffffffffffffffffffffffffffffffffff167f8be0079c531659141344cd1fd0a4f28419497f9722a3daafe3b4186f6b6457e060405160405180910390a35050565b61137b61101d565b6001600060146101000a81548160ff0219169083151502179055507f62e78cea01bee320cd4e420270b5ea74000d11b0c9f74754ebdbfc544b05a2586113bf6114ca565b6040516113cc91906117bd565b60405180910390a1565b61144782600360009054906101000a900473ffffffffffffffffffffffffffffffffffffffff1683600460009054906101000a900473ffffffffffffffffffffffffffffffffffffffff1673ffffffffffffffffffffffffffffffffffffffff16611512909392919063ffffffff16565b5050565b6114c5838473ffffffffffffffffffffffffffffffffffffffff1663a9059cbb858560405160240161147e929190611e4b565b604051602081830303815290604052915060e01b6020820180517bffffffffffffffffffffffffffffffffffffffffffffffffffffffff8381831617835250505050611594565b505050565b600033905090565b6114da610a03565b611510576040517f8dfc202b00000000000000000000000000000000000000000000000000000000815260040160405180910390fd5b565b61158e848573ffffffffffffffffffffffffffffffffffffffff166323b872dd86868660405160240161154793929190611f15565b604051602081830303815290604052915060e01b6020820180517bffffffffffffffffffffffffffffffffffffffffffffffffffffffff8381831617835250505050611594565b50505050565b600080602060008451602086016000885af1806115b7576040513d6000823e3d81fd5b3d9250600051915050600082146115d25760018114156115ee565b60008473ffffffffffffffffffffffffffffffffffffffff163b145b1561163057836040517f5274afe700000000000000000000000000000000000000000000000000000000815260040161162791906117bd565b60405180910390fd5b50505050565b600082825260208201905092915050565b7f4d7573742073656e64206120706f73697469766520616d6f756e740000000000600082015250565b600061167d601b83611636565b915061168882611647565b602082019050919050565b600060208201905081810360008301526116ac81611670565b9050919050565b600080fd5b6000819050919050565b6116cb816116b8565b81146116d657600080fd5b50565b6000813590506116e8816116c2565b92915050565b600060208284031215611704576117036116b3565b5b6000611712848285016116d9565b91505092915050565b611724816116b8565b82525050565b600060608201905061173f600083018661171b565b61174c602083018561171b565b611759604083018461171b565b949350505050565b6000602082019050611776600083018461171b565b92915050565b600073ffffffffffffffffffffffffffffffffffffffff82169050919050565b60006117a78261177c565b9050919050565b6117b78161179c565b82525050565b60006020820190506117d260008301846117ae565b92915050565b60008115159050919050565b6117ed816117d8565b82525050565b600060208201905061180860008301846117e4565b92915050565b60008060408385031215611825576118246116b3565b5b6000611833858286016116d9565b9250506020611844858286016116d9565b9150509250929050565b6118578161179c565b811461186257600080fd5b50565b6000813590506118748161184e565b92915050565b60008060408385031215611891576118906116b3565b5b600061189f85828601611865565b92505060206118b0858286016116d9565b9150509250929050565b6000819050919050565b60006118df6118da6118d58461177c565b6118ba565b61177c565b9050919050565b60006118f1826118c4565b9050919050565b6000611903826118e6565b9050919050565b611913816118f8565b82525050565b600060208201905061192e600083018461190a565b92915050565b60006020828403121561194a576119496116b3565b5b600061195884828501611865565b91505092915050565b7f43726f776473616c65206973206e6f74206f70656e0000000000000000000000600082015250565b6000611997601583611636565b91506119a282611961565b602082019050919050565b600060208201905081810360008301526119c68161198a565b9050919050565b7f43726f776473616c6520686173206265656e2066696e616c697a656400000000600082015250565b6000611a03601c83611636565b9150611a0e826119cd565b602082019050919050565b60006020820190508181036000830152611a32816119f6565b9050919050565b7f4e487b7100000000000000000000000000000000000000000000000000000000600052601160045260246000fd5b6000611a73826116b8565b9150611a7e836116b8565b9250828202611a8c816116b8565b91508282048414831517611aa357611aa2611a39565b5b5092915050565b7f4e487b7100000000000000000000000000000000000000000000000000000000600052601260045260246000fd5b6000611ae4826116b8565b9150611aef836116b8565b925082611aff57611afe611aaa565b5b828204905092915050565b7f4e487b7100000000000000000000000000000000000000000000000000000000600052603260045260246000fd5b6000611b44826116b8565b9150611b4f836116b8565b9250828201905080821115611b6757611b66611a39565b5b92915050565b600069ffffffffffffffffffff82169050919050565b611b8c81611b6d565b8114611b9757600080fd5b50565b600081519050611ba981611b83565b92915050565b6000819050919050565b611bc281611baf565b8114611bcd57600080fd5b50565b600081519050611bdf81611bb9565b92915050565b600081519050611bf4816116c2565b92915050565b600080600080600060a08688031215611c1657611c156116b3565b5b6000611c2488828901611b9a565b9550506020611c3588828901611bd0565b9450506040611c4688828901611be5565b9350506060611c5788828901611be5565b9250506080611c6888828901611b9a565b9150509295509295909350565b7f496e76616c696420424e42207072696365000000000000000000000000000000600082015250565b6000611cab601183611636565b9150611cb682611c75565b602082019050919050565b60006020820190508181036000830152611cda81611c9e565b9050919050565b7f456e642074696d65206d75737420626520696e20746865206675747572650000600082015250565b6000611d17601e83611636565b9150611d2282611ce1565b602082019050919050565b60006020820190508181036000830152611d4681611d0a565b9050919050565b7f456e642074696d65206d7573742062652061667465722073746172742074696d60008201527f6500000000000000000000000000000000000000000000000000000000000000602082015250565b6000611da9602183611636565b9150611db482611d4d565b604082019050919050565b60006020820190508181036000830152611dd881611d9c565b9050919050565b7f52617465206d7573742062652067726174656572207468616e207a65726f0000600082015250565b6000611e15601e83611636565b9150611e2082611ddf565b602082019050919050565b60006020820190508181036000830152611e4481611e08565b9050919050565b6000604082019050611e6060008301856117ae565b611e6d602083018461171b565b9392505050565b611e7d816117d8565b8114611e8857600080fd5b50565b600081519050611e9a81611e74565b92915050565b600060208284031215611eb657611eb56116b3565b5b6000611ec484828501611e8b565b91505092915050565b6000611ed8826116b8565b91507fffffffffffffffffffffffffffffffffffffffffffffffffffffffffffffffff8203611f0a57611f09611a39565b5b600182019050919050565b6000606082019050611f2a60008301866117ae565b611f3760208301856117ae565b611f44604083018461171b565b94935050505056fea2646970667358221220a064430d390adfb6b1ce6e7b369193a0df62b391f709faaea7c57768c123ca3d64736f6c634300081c0033",
  "linkReferences": {},
  "deployedLinkReferences": {}
}